:020000040000FA
:100000000A128A11DA2F00308A000408840A820753
:10001000003449344E3443344F345234523445342E
:1000200043345434203450344134533453345734EB
:10003000443400345034413453345334203456342F
:1000400049345334493442344C3445340034313427
:100050002E342D34533469342F3430342E342D342F
:100060004E346F34003443344F34523452344534B8
:10007000433454344F3421340034503441345334F5
:100080005334573444343A3400345B3445345234B6
:0A00900052344F3452345D34003412
:1005120031343234333434340034F500F601F70127
:1005220076087007F2007208840083130008F30053
:1005320076087507F400740884000008730603192E
:10054200A32AA42AA92AFF30F000FF30F100C02A12
:100552000130F6070318F70A0030F7077708803AE8
:10056200FF0080307F02031DB82A04307602031C8C
:10057200BB2ABC2A912A0130F0000030F1000800A9
:10058200F700DB2A73087F3EF5007508F800F12AB0
:100592007308BF3EF5007508F800F12A7308933E10
:1005A200F5007508F800F12A7308D33EF5007508C6
:1005B200F800F12A7708F500F6017608003A0319E7
:1005C200E32AF12A7508013A0319C32A033A0319E7
:1005D200C92A013A0319CF2A073A0319D52AF12A5F
:1005E20078080A128A114C240A128A1174080A1213
:1005F2008A11E7240A128A110800F700182B7308DF
:100602007F3EF5007508F8002E2B7308BF3EF500FB
:100612007508F8002E2B7308933EF5007508F80054
:100622002E2B7308D33EF5007508F8002E2B7708A1
:10063200F500F6017608003A0319202B2E2B7508D7
:10064200013A0319002B033A0319062B013A031945
:100652000C2B073A0319122B2E2B78080A128A1137
:100662004C240A128A11452B740884000A128A113A
:1006720003200A128A110A128A11E7240A128A1125
:100682000130F5007508F407740884000A128A1113
:1006920003200A128A11003A031D502B512B352BCD
:1006A2000800F030831603138600FF308312031311
:1006B20086000610061A5E2B5F2B612B3130C32B8E
:1006C200861A642B652B672B3230C32B061B6A2BD1
:1006D2006B2B6D2B3330C32B861B702B712B732B23
:1006E2004130C32B06148610061A782B792B7B2BEC
:1006F2003430C32B861A7E2B7F2B812B3530C32BB4
:10070200061B842B852B872B3630C32B861B8A2B0B
:100712008B2B8D2B4230C32B86140611061A922B7B
:10072200932B952B3730C32B861A982B992B9B2B07
:100732003830C32B061B9E2B9F2BA12B3930C32B8A
:10074200861BA42BA52BA72B4330C32B0615861182
:10075200061AAC2BAD2BAF2B2A30C32B861AB22B29
:10076200B32BB52B3030C32B061BB82BB92BBB2BAD
:100772002330C32B861BBE2BBF2BC12B4430C32B74
:1007820086152030080083160313081088100811FC
:100792008811081288128312031308108810081196
:1007A2008811081288120830F4002330F300F30B8A
:1007B200D82BF40BD82B0830F4002330F300F30BC2
:1007C200E02BF40BE02B0830F4002330F300F30BA2
:1007D200E82BF40BE82B0830F4002330F300F30B82
:1007E200F02BF40BF02B0830F4002330F300F30B62
:1007F200F82BF40BF82B0830F4002330F300F30B42
:10080200002CF40B002C8312031308108810081517
:1008120088150812881208108810081588150816FD
:100822008812132C142C0000831203130810881052
:1008320008158815081288120830F4002330F300D6
:10084200F30B212CF40B212C28300A128A114C2490
:100852000A128A1110300A128A114C240A128A11C1
:1008620001300A128A114C240A128A110F30F30045
:100872007308F5000F300A128A114C240A128A11E9
:100882000130F3007308F50704307502031C4A2C8B
:100892004B2C042C0800F200831203130812881256
:1008A2007208F00007300310F00CFF3E031D542CB9
:1008B20001307005F10008087106FE3971068800E2
:1008C2007208F00006300310F00CFF3E031D642C8A
:1008D20070080139F100F10D08087106FD39710641
:1008E20088007208F00005300310F00CFF3E031D73
:1008F200752C70080139F100F10DF10D080871062F
:10090200FB39710688007208F00004300310F00C05
:10091200FF3E031D872C70080139F100F10DF10D26
:10092200F10D08087106F739710688000816992C2E
:100932009A2C00008312031308127208F00003308D
:100942000310F00CFF3E031DA12C01307005F100D5
:1009520008087106FE39710688007208F00002303C
:100962000310F00CFF3E031DB12C70080139F10099
:10097200F10D08087106FD39710688007208F00051
:100982000310700C0139F100F10DF10D0808710628
:10099200FB397106880072080139F000F00DF00D84
:1009A200F00D08087006F739700688000816D92C71
:1009B200DA2C00008312031308120830F1002330EE
:1009C200F000F00BE22CF10BE22C0800F200831293
:1009D2000313081288167208F00007300310F00C97
:1009E200FF3E031DEF2C01307005F100080871066F
:1009F200FE39710688007208F00006300310F00C10
:100A0200FF3E031DFF2C70080139F100F10D0808AB
:100A12007106FD39710688007208F0000530031076
:100A2200F00CFF3E031D102D70080139F100F10D8D
:100A3200F10D08087106FB39710688007208F00092
:100A420004300310F00CFF3E031D222D7008013903
:100A5200F100F10DF10DF10D08087106F73971067B
:100A620088000816342D352D000083120313081256
:100A72007208F00003300310F00CFF3E031D3C2D02
:100A820001307005F10008087106FE397106880010
:100A92007208F00002300310F00CFF3E031D4C2DD3
:100AA20070080139F100F10D08087106FD3971066F
:100AB20088007208F0000310700C0139F100F10D8A
:100AC200F10D08087106FB397106880072080139B8
:100AD200F000F00DF00DF00D08087006F739700601
:100AE20088000816742D752D000083120313081256
:100AF2007A2D7B2D00000830F1002330F000F00B3E
:100B0200802DF10B802D08008316031789018801BF
:100B120083160313811307309F000A128A11C4231C
:100B22000A128A1101300A128A114C240A128A11FD
:100B32000C300A128A114C240A128A110230FB006C
:100B42000430FA00BA30F900F90BA52DFA0BA52DE5
:100B5200FB0BA52D0000F301F30A1230F90079080E
:100B6200F40001300A128A11FE220A128A11F301DC
:100B7200F30A1F30F9007908F40002300A128A11D0
:100B8200FE220A128A11831603130510851083129E
:100B9200031305108510A401A501A201A3010130D0
:100BA200A0000030A100D12F0A128A1152230A128A
:100BB2008A11F900790883120313A6002030260651
:100BC2000319E42DE52DA32F31302606031DEA2D4E
:100BD200EB2D292E0130A4000030A5000630F900CB
:100BE2007908F3002608FA007A08F40002300A12A3
:100BF2008A11C1220A128A110230FB000430FA0063
:100C0200BA30F900F90B032EFA0B032EFB0B032E5D
:100C1200000001300A128A114C240A128A11023091
:100C2200FB000430FA00BA30F900F90B162EFA0B69
:100C3200162EFB0B162E0000F301F30A3530F900D5
:100C42007908F40001300A128A11FE220A128A116E
:100C52003030831203132606031D302E312E6D2EE3
:100C6200A401A5010630F9007908F3002608FA006C
:100C72007A08F40002300A128A11C1220A128A1179
:100C82000230FB000430FA00BA30F900F90B472EAB
:100C9200FA0B472EFB0B472E000001300A128A1175
:100CA2004C240A128A110230FB000430FA00BA30D6
:100CB200F900F90B5A2EFA0B5A2EFB0B5A2E000092
:100CC200F301F30A3530F9007908F40001300A1211
:100CD2008A11FE220A128A118312031324032504A5
:100CE200031D742E752E6E2F2208230403197A2EEB
:100CF2007B2E692F24032504031D802E812E8F2E27
:100D02002C08F9007908F3002608FA007A08F400A2
:100D120002300A128A11C1220A128A1183120313A3
:100D220024082504031D962E972EA52E2C08F900C3
:100D32007908F3002A30FA007A08F40002300A1225
:100D42008A11C1220A128A11831203132608F9009A
:100D52002C082D3E84007908831380000130F900AD
:100D62007908AC0704302C06031DB82EB92EA32F28
:100D72002730F9007908F0002D300A128A118E22EC
:100D82000A128A1170037104031DC82EC92EF92E8E
:100D92000230FB000430FA00BA30F900F90BCF2E12
:100DA200FA0BCF2EFB0BCF2E000001300A128A1154
:100DB2004C240A128A118312031305140230FB0019
:100DC2000430FA00BA30F900F90BE52EFA0BE52EE1
:100DD200FB0BE52E0000F301F30A2B30F900790832
:100DE200F40001300A128A11FE220A128A11A32F7C
:100DF20083120313851401300A128A114C240A1239
:100E02008A110230FB000430FA00BA30F900F90B03
:100E1200082FFA0B082FFB0B082F0000F301F30A2F
:100E22003D30F9007908F40001300A128A11FE22DD
:100E32000A128A11F301F30A0130F9007908F40069
:100E420002300A128A11FE220A128A110330FB00B2
:100E52000830FA007730F900F90B2D2FFA0B2D2FFD
:100E6200FB0B2D2F01300A128A114C240A128A110F
:100E72008312031385100230FB000430FA00BA30EB
:100E8200F900F90B422FFA0B422FFB0B422F000005
:100E9200F301F30A1230F9007908F40001300A1262
:100EA2008A11FE220A128A11F301F30A1F30F90095
:100EB2007908F40002300A128A11FE220A128A11FB
:100EC20083120313A401A501A201A301AC01A32F64
:100ED2000130A2000030A300A32F0230FB00043037
:100EE200FA00BA30F900F90B742FFA0B742FFB0BCE
:100EF200742F000001300A128A114C240A128A113E
:100F0200F301F30A1230F9007908F40001300A12F1
:100F12008A11FE220A128A11F301F30A1F30F90024
:100F22007908F40002300A128A11FE220A128A118A
:100F3200A32F8230FA00DD30F900F90B9E2FFA0B55
:100F42009E2FA32F83120313061EA82FA92F9A2FB9
:100F5200861EAC2FAD2F9A2F061FB02FB12F9A2FBE
:100F6200861FB42FB52F9A2FBF2F8230FA00DD30A3
:100F7200F900F90BBA2FFA0BBA2FBF2F8312031302
:100F8200061EC42FC52FB62F861EC82FC92FB62FF7
:100F9200061FCC2FCD2FB62F861FD02FD12FB62FC5
:100FA200200321040319D62FD72FD52D0A128A1117
:100FB20000280A128A1189220A128A11A7000A122B
:100FC2008A118A220A128A11A8000A128A118B2215
:100FD2000A128A11A9000A128A118C220A128A1193
:100FE200AA000A128A118D220A128A11AB00AC01E0
:0E0FF200AD01AE01AF0183010A128A11852DF7
:04400E00F23CFF3F42
:00000001FF
